{
  "_format": "hh-sol-artifact-1",
  "contractName": "PropertyToken",
  "sourceName": "contracts/PropertyToken.sol",
  "abi": [
    {
      "inputs": [
        {
          "internalType": "address",
          "name": "sender",
          "type": "address"
        },
        {
          "internalType": "uint256",
          "name": "tokenId",
          "type": "uint256"
        },
        {
          "internalType": "address",
          "name": "owner",
          "type": "address"
        }
      ],
      "name": "ERC721IncorrectOwner",
      "type": "error"
    },
    {
      "inputs": [
        {
          "internalType": "address",
          "name": "operator",
          "type": "address"
        },
        {
          "internalType": "uint256",
          "name": "tokenId",
          "type": "uint256"
        }
      ],
      "name": "ERC721InsufficientApproval",
      "type": "error"
    },
    {
      "inputs": [
        {
          "internalType": "address",
          "name": "approver",
          "type": "address"
        }
      ],
      "name": "ERC721InvalidApprover",
      "type": "error"
    },
    {
      "inputs": [
        {
          "internalType": "address",
          "name": "operator",
          "type": "address"
        }
      ],
      "name": "ERC721InvalidOperator",
      "type": "error"
    },
    {
      "inputs": [
        {
          "internalType": "address",
          "name": "owner",
          "type": "address"
        }
      ],
      "name": "ERC721InvalidOwner",
      "type": "error"
    },
    {
      "inputs": [
        {
          "internalType": "address",
          "name": "receiver",
          "type": "address"
        }
      ],
      "name": "ERC721InvalidReceiver",
      "type": "error"
    },
    {
      "inputs": [
        {
          "internalType": "address",
          "name": "sender",
          "type": "address"
        }
      ],
      "name": "ERC721InvalidSender",
      "type": "error"
    },
    {
      "inputs": [
        {
          "internalType": "uint256",
          "name": "tokenId",
          "type": "uint256"
        }
      ],
      "name": "ERC721NonexistentToken",
      "type": "error"
    },
    {
      "inputs": [],
      "name": "InvalidInitialization",
      "type": "error"
    },
    {
      "inputs": [],
      "name": "NotInitializing",
      "type": "error"
    },
    {
      "inputs": [
        {
          "internalType": "address",
          "name": "owner",
          "type": "address"
        }
      ],
      "name": "OwnableInvalidOwner",
      "type": "error"
    },
    {
      "inputs": [
        {
          "internalType": "address",
          "name": "account",
          "type": "address"
        }
      ],
      "name": "OwnableUnauthorizedAccount",
      "type": "error"
    },
    {
      "anonymous": false,
      "inputs": [
        {
          "indexed": true,
          "internalType": "address",
          "name": "owner",
          "type": "address"
        },
        {
          "indexed": true,
          "internalType": "address",
          "name": "approved",
          "type": "address"
        },
        {
          "indexed": true,
          "internalType": "uint256",
          "name": "tokenId",
          "type": "uint256"
        }
      ],
      "name": "Approval",
      "type": "event"
    },
    {
      "anonymous": false,
      "inputs": [
        {
          "indexed": true,
          "internalType": "address",
          "name": "owner",
          "type": "address"
        },
        {
          "indexed": true,
          "internalType": "address",
          "name": "operator",
          "type": "address"
        },
        {
          "indexed": false,
          "internalType": "bool",
          "name": "approved",
          "type": "bool"
        }
      ],
      "name": "ApprovalForAll",
      "type": "event"
    },
    {
      "anonymous": false,
      "inputs": [
        {
          "indexed": false,
          "internalType": "uint64",
          "name": "version",
          "type": "uint64"
        }
      ],
      "name": "Initialized",
      "type": "event"
    },
    {
      "anonymous": false,
      "inputs": [
        {
          "indexed": false,
          "internalType": "string",
          "name": "latestMetadataCid",
          "type": "string"
        },
        {
          "indexed": false,
          "internalType": "uint256",
          "name": "updatedAt",
          "type": "uint256"
        }
      ],
      "name": "MetadataUpdated",
      "type": "event"
    },
    {
      "anonymous": false,
      "inputs": [
        {
          "indexed": true,
          "internalType": "address",
          "name": "previousOwner",
          "type": "address"
        },
        {
          "indexed": true,
          "internalType": "address",
          "name": "newOwner",
          "type": "address"
        }
      ],
      "name": "OwnershipTransferred",
      "type": "event"
    },
    {
      "anonymous": false,
      "inputs": [
        {
          "indexed": true,
          "internalType": "address",
          "name": "contractAddress",
          "type": "address"
        },
        {
          "indexed": false,
          "internalType": "string",
          "name": "name",
          "type": "string"
        },
        {
          "indexed": false,
          "internalType": "string",
          "name": "location",
          "type": "string"
        },
        {
          "indexed": false,
          "internalType": "string",
          "name": "jurisdiction",
          "type": "string"
        },
        {
          "indexed": false,
          "internalType": "string",
          "name": "issuer",
          "type": "string"
        },
        {
          "indexed": false,
          "internalType": "uint256",
          "name": "totalShares",
          "type": "uint256"
        },
        {
          "indexed": false,
          "internalType": "string",
          "name": "image",
          "type": "string"
        },
        {
          "indexed": false,
          "internalType": "string",
          "name": "latestMetadataCid",
          "type": "string"
        }
      ],
      "name": "PropertyRegistered",
      "type": "event"
    },
    {
      "anonymous": false,
      "inputs": [
        {
          "indexed": true,
          "internalType": "address",
          "name": "buyer",
          "type": "address"
        },
        {
          "indexed": false,
          "internalType": "uint256",
          "name": "tokenId",
          "type": "uint256"
        }
      ],
      "name": "Purchase",
      "type": "event"
    },
    {
      "anonymous": false,
      "inputs": [
        {
          "indexed": true,
          "internalType": "address",
          "name": "from",
          "type": "address"
        },
        {
          "indexed": true,
          "internalType": "address",
          "name": "to",
          "type": "address"
        },
        {
          "indexed": true,
          "internalType": "uint256",
          "name": "tokenId",
          "type": "uint256"
        }
      ],
      "name": "Transfer",
      "type": "event"
    },
    {
      "inputs": [
        {
          "internalType": "address",
          "name": "to",
          "type": "address"
        },
        {
          "internalType": "uint256",
          "name": "tokenId",
          "type": "uint256"
        }
      ],
      "name": "approve",
      "outputs": [],
      "stateMutability": "nonpayable",
      "type": "function"
    },
    {
      "inputs": [
        {
          "internalType": "address",
          "name": "owner",
          "type": "address"
        }
      ],
      "name": "balanceOf",
      "outputs": [
        {
          "internalType": "uint256",
          "name": "",
          "type": "uint256"
        }
      ],
      "stateMutability": "view",
      "type": "function"
    },
    {
      "inputs": [],
      "name": "baseTokenURI",
      "outputs": [
        {
          "internalType": "string",
          "name": "",
          "type": "string"
        }
      ],
      "stateMutability": "view",
      "type": "function"
    },
    {
      "inputs": [
        {
          "internalType": "uint256",
          "name": "tokenId",
          "type": "uint256"
        }
      ],
      "name": "getApproved",
      "outputs": [
        {
          "internalType": "address",
          "name": "",
          "type": "address"
        }
      ],
      "stateMutability": "view",
      "type": "function"
    },
    {
      "inputs": [],
      "name": "image",
      "outputs": [
        {
          "internalType": "string",
          "name": "",
          "type": "string"
        }
      ],
      "stateMutability": "view",
      "type": "function"
    },
    {
      "inputs": [
        {
          "internalType": "address",
          "name": "_usdcToken",
          "type": "address"
        },
        {
          "internalType": "uint256",
          "name": "_pricePerShare",
          "type": "uint256"
        },
        {
          "internalType": "string",
          "name": "_baseTokenURI",
          "type": "string"
        },
        {
          "internalType": "address",
          "name": "initialOwner",
          "type": "address"
        },
        {
          "internalType": "string",
          "name": "_name",
          "type": "string"
        },
        {
          "internalType": "string",
          "name": "_location",
          "type": "string"
        },
        {
          "internalType": "string",
          "name": "_jurisdiction",
          "type": "string"
        },
        {
          "internalType": "string",
          "name": "_issuer",
          "type": "string"
        },
        {
          "internalType": "uint256",
          "name": "_totalShares",
          "type": "uint256"
        },
        {
          "internalType": "string",
          "name": "_image",
          "type": "string"
        },
        {
          "internalType": "string",
          "name": "_latestMetadataCid",
          "type": "string"
        }
      ],
      "name": "initialize",
      "outputs": [],
      "stateMutability": "nonpayable",
      "type": "function"
    },
    {
      "inputs": [
        {
          "internalType": "address",
          "name": "owner",
          "type": "address"
        },
        {
          "internalType": "address",
          "name": "operator",
          "type": "address"
        }
      ],
      "name": "isApprovedForAll",
      "outputs": [
        {
          "internalType": "bool",
          "name": "",
          "type": "bool"
        }
      ],
      "stateMutability": "view",
      "type": "function"
    },
    {
      "inputs": [],
      "name": "issuer",
      "outputs": [
        {
          "internalType": "string",
          "name": "",
          "type": "string"
        }
      ],
      "stateMutability": "view",
      "type": "function"
    },
    {
      "inputs": [],
      "name": "jurisdiction",
      "outputs": [
        {
          "internalType": "string",
          "name": "",
          "type": "string"
        }
      ],
      "stateMutability": "view",
      "type": "function"
    },
    {
      "inputs": [],
      "name": "latestMetadataCid",
      "outputs": [
        {
          "internalType": "string",
          "name": "",
          "type": "string"
        }
      ],
      "stateMutability": "view",
      "type": "function"
    },
    {
      "inputs": [],
      "name": "location",
      "outputs": [
        {
          "internalType": "string",
          "name": "",
          "type": "string"
        }
      ],
      "stateMutability": "view",
      "type": "function"
    },
    {
      "inputs": [
        {
          "internalType": "address",
          "name": "to",
          "type": "address"
        }
      ],
      "name": "mint",
      "outputs": [
        {
          "internalType": "uint256",
          "name": "",
          "type": "uint256"
        }
      ],
      "stateMutability": "nonpayable",
      "type": "function"
    },
    {
      "inputs": [],
      "name": "name",
      "outputs": [
        {
          "internalType": "string",
          "name": "",
          "type": "string"
        }
      ],
      "stateMutability": "view",
      "type": "function"
    },
    {
      "inputs": [],
      "name": "name_",
      "outputs": [
        {
          "internalType": "string",
          "name": "",
          "type": "string"
        }
      ],
      "stateMutability": "view",
      "type": "function"
    },
    {
      "inputs": [],
      "name": "nextTokenId",
      "outputs": [
        {
          "internalType": "uint256",
          "name": "",
          "type": "uint256"
        }
      ],
      "stateMutability": "view",
      "type": "function"
    },
    {
      "inputs": [],
      "name": "owner",
      "outputs": [
        {
          "internalType": "address",
          "name": "",
          "type": "address"
        }
      ],
      "stateMutability": "view",
      "type": "function"
    },
    {
      "inputs": [
        {
          "internalType": "uint256",
          "name": "tokenId",
          "type": "uint256"
        }
      ],
      "name": "ownerOf",
      "outputs": [
        {
          "internalType": "address",
          "name": "",
          "type": "address"
        }
      ],
      "stateMutability": "view",
      "type": "function"
    },
    {
      "inputs": [],
      "name": "pricePerShare",
      "outputs": [
        {
          "internalType": "uint256",
          "name": "",
          "type": "uint256"
        }
      ],
      "stateMutability": "view",
      "type": "function"
    },
    {
      "inputs": [],
      "name": "renounceOwnership",
      "outputs": [],
      "stateMutability": "nonpayable",
      "type": "function"
    },
    {
      "inputs": [
        {
          "internalType": "address",
          "name": "from",
          "type": "address"
        },
        {
          "internalType": "address",
          "name": "to",
          "type": "address"
        },
        {
          "internalType": "uint256",
          "name": "tokenId",
          "type": "uint256"
        }
      ],
      "name": "safeTransferFrom",
      "outputs": [],
      "stateMutability": "nonpayable",
      "type": "function"
    },
    {
      "inputs": [
        {
          "internalType": "address",
          "name": "from",
          "type": "address"
        },
        {
          "internalType": "address",
          "name": "to",
          "type": "address"
        },
        {
          "internalType": "uint256",
          "name": "tokenId",
          "type": "uint256"
        },
        {
          "internalType": "bytes",
          "name": "data",
          "type": "bytes"
        }
      ],
      "name": "safeTransferFrom",
      "outputs": [],
      "stateMutability": "nonpayable",
      "type": "function"
    },
    {
      "inputs": [
        {
          "internalType": "address",
          "name": "operator",
          "type": "address"
        },
        {
          "internalType": "bool",
          "name": "approved",
          "type": "bool"
        }
      ],
      "name": "setApprovalForAll",
      "outputs": [],
      "stateMutability": "nonpayable",
      "type": "function"
    },
    {
      "inputs": [
        {
          "internalType": "string",
          "name": "newBaseURI",
          "type": "string"
        }
      ],
      "name": "setBaseTokenURI",
      "outputs": [],
      "stateMutability": "nonpayable",
      "type": "function"
    },
    {
      "inputs": [
        {
          "internalType": "bytes4",
          "name": "interfaceId",
          "type": "bytes4"
        }
      ],
      "name": "supportsInterface",
      "outputs": [
        {
          "internalType": "bool",
          "name": "",
          "type": "bool"
        }
      ],
      "stateMutability": "view",
      "type": "function"
    },
    {
      "inputs": [],
      "name": "symbol",
      "outputs": [
        {
          "internalType": "string",
          "name": "",
          "type": "string"
        }
      ],
      "stateMutability": "view",
      "type": "function"
    },
    {
      "inputs": [
        {
          "internalType": "uint256",
          "name": "tokenId",
          "type": "uint256"
        }
      ],
      "name": "tokenURI",
      "outputs": [
        {
          "internalType": "string",
          "name": "",
          "type": "string"
        }
      ],
      "stateMutability": "view",
      "type": "function"
    },
    {
      "inputs": [],
      "name": "totalShares",
      "outputs": [
        {
          "internalType": "uint256",
          "name": "",
          "type": "uint256"
        }
      ],
      "stateMutability": "view",
      "type": "function"
    },
    {
      "inputs": [
        {
          "internalType": "address",
          "name": "from",
          "type": "address"
        },
        {
          "internalType": "address",
          "name": "to",
          "type": "address"
        },
        {
          "internalType": "uint256",
          "name": "tokenId",
          "type": "uint256"
        }
      ],
      "name": "transferFrom",
      "outputs": [],
      "stateMutability": "nonpayable",
      "type": "function"
    },
    {
      "inputs": [
        {
          "internalType": "address",
          "name": "newOwner",
          "type": "address"
        }
      ],
      "name": "transferOwnership",
      "outputs": [],
      "stateMutability": "nonpayable",
      "type": "function"
    },
    {
      "inputs": [
        {
          "internalType": "string",
          "name": "newCid",
          "type": "string"
        }
      ],
      "name": "updateMetadataCID",
      "outputs": [],
      "stateMutability": "nonpayable",
      "type": "function"
    },
    {
      "inputs": [],
      "name": "usdcToken",
      "outputs": [
        {
          "internalType": "contract IERC20",
          "name": "",
          "type": "address"
        }
      ],
      "stateMutability": "view",
      "type": "function"
    },
    {
      "inputs": [
        {
          "internalType": "address",
          "name": "to",
          "type": "address"
        },
        {
          "internalType": "uint256",
          "name": "amount",
          "type": "uint256"
        }
      ],
      "name": "withdrawUSDC",
      "outputs": [],
      "stateMutability": "nonpayable",
      "type": "function"
    }
  ],
  "bytecode": "0x6080604052348015600f57600080fd5b50613a598061001f6000396000f3fe608060405234801561001057600080fd5b50600436106101f05760003560e01c806375794a3c1161010f578063b88d4fde116100a2578063e985e9c511610071578063e985e9c514610585578063f2fde38b146105b5578063f3ccaac0146105d1578063fd805312146105ef576101f0565b8063b88d4fde146104fd578063c87b56dd14610519578063d547cfb714610549578063e2b9e18614610567576101f0565b806399530b06116100de57806399530b06146104895780639ca5c10d146104a7578063a22cb465146104c3578063acece205146104df576101f0565b806375794a3c14610411578063826a5d561461042f5780638da5cb5b1461044d57806395d89b411461046b576101f0565b80633a98ef39116101875780636352211e116101565780636352211e146103775780636a627842146103a757806370a08231146103d7578063715018a614610407576101f0565b80633a98ef391461030357806342842e0e1461032157806344471fd91461033d578063516f279e14610359576101f0565b806311eac855116101c357806311eac8551461028f5780631d143848146102ad57806323b872dd146102cb57806330176e13146102e7576101f0565b806301ffc9a7146101f557806306fdde0314610225578063081812fc14610243578063095ea7b314610273575b600080fd5b61020f600480360381019061020a919061285f565b61060b565b60405161021c91906128a7565b60405180910390f35b61022d6106ed565b60405161023a9190612952565b60405180910390f35b61025d600480360381019061025891906129aa565b61078e565b60405161026a9190612a18565b60405180910390f35b61028d60048036038101906102889190612a5f565b6107aa565b005b6102976107c0565b6040516102a49190612afe565b60405180910390f35b6102b56107e4565b6040516102c29190612952565b60405180910390f35b6102e560048036038101906102e09190612b19565b610872565b005b61030160048036038101906102fc9190612ca1565b610974565b005b61030b61098f565b6040516103189190612cf9565b60405180910390f35b61033b60048036038101906103369190612b19565b610995565b005b61035760048036038101906103529190612a5f565b6109b5565b005b610361610b3c565b60405161036e9190612952565b60405180910390f35b610391600480360381019061038c91906129aa565b610bca565b60405161039e9190612a18565b60405180910390f35b6103c160048036038101906103bc9190612d14565b610bdc565b6040516103ce9190612cf9565b60405180910390f35b6103f160048036038101906103ec9190612d14565b610cad565b6040516103fe9190612cf9565b60405180910390f35b61040f610d76565b005b610419610d8a565b6040516104269190612cf9565b60405180910390f35b610437610d90565b6040516104449190612952565b60405180910390f35b610455610e1e565b6040516104629190612a18565b60405180910390f35b610473610e56565b6040516104809190612952565b60405180910390f35b610491610ef7565b60405161049e9190612cf9565b60405180910390f35b6104c160048036038101906104bc9190612d41565b610efd565b005b6104dd60048036038101906104d89190612f25565b61122a565b005b6104e7611240565b6040516104f49190612952565b60405180910390f35b61051760048036038101906105129190613006565b6112ce565b005b610533600480360381019061052e91906129aa565b6112f3565b6040516105409190612952565b60405180910390f35b6105516113e0565b60405161055e9190612952565b60405180910390f35b61056f61146e565b60405161057c9190612952565b60405180910390f35b61059f600480360381019061059a9190613089565b6114fc565b6040516105ac91906128a7565b60405180910390f35b6105cf60048036038101906105ca9190612d14565b61159e565b005b6105d9611624565b6040516105e69190612952565b60405180910390f35b61060960048036038101906106049190612ca1565b6116b2565b005b60007f80ac58cd000000000000000000000000000000000000000000000000000000007bffffffffffffffffffffffffffffffffffffffffffffffffffffffff1916827bffffffffffffffffffffffffffffffffffffffffffffffffffffffff191614806106d657507f5b5e139f000000000000000000000000000000000000000000000000000000007bffffffffffffffffffffffffffffffffffffffffffffffffffffffff1916827bffffffffffffffffffffffffffffffffffffffffffffffffffffffff1916145b806106e657506106e582611706565b5b9050919050565b606060006106f9611770565b905080600001805461070a906130f8565b80601f0160208091040260200160405190810160405280929190818152602001828054610736906130f8565b80156107835780601f1061075857610100808354040283529160200191610783565b820191906000526020600020905b81548152906001019060200180831161076657829003601f168201915b505050505091505090565b600061079982611798565b506107a382611820565b9050919050565b6107bc82826107b761186b565b611873565b5050565b60008054906101000a900473ffffffffffffffffffffffffffffffffffffffff1681565b600880546107f1906130f8565b80601f016020809104026020016040519081016040528092919081815260200182805461081d906130f8565b801561086a5780601f1061083f5761010080835404028352916020019161086a565b820191906000526020600020905b81548152906001019060200180831161084d57829003601f168201915b505050505081565b600073ffffffffffffffffffffffffffffffffffffffff168273ffffffffffffffffffffffffffffffffffffffff16036108e45760006040517f64a0ae920000000000000000000000000000000000000000000000000000000081526004016108db9190612a18565b60405180910390fd5b60006108f883836108f361186b565b611885565b90508373ffffffffffffffffffffffffffffffffffffffff168173ffffffffffffffffffffffffffffffffffffffff161461096e578382826040517f64283d7b00000000000000000000000000000000000000000000000000000000815260040161096593929190613129565b60405180910390fd5b50505050565b61097c611ab2565b806004908161098b9190613302565b5050565b60035481565b6109b0838383604051806020016040528060008152506112ce565b505050565b6109bd611ab2565b8060008054906101000a900473ffffffffffffffffffffffffffffffffffffffff1673ffffffffffffffffffffffffffffffffffffffff166370a08231306040518263ffffffff1660e01b8152600401610a179190612a18565b602060405180830381865afa158015610a34573d6000803e3d6000fd5b505050506040513d601f19601f82011682018060405250810190610a5891906133e9565b1015610a99576040517f08c379a0000000000000000000000000000000000000000000000000000000008152600401610a9090613462565b60405180910390fd5b60008054906101000a900473ffffffffffffffffffffffffffffffffffffffff1673ffffffffffffffffffffffffffffffffffffffff1663a9059cbb83836040518363ffffffff1660e01b8152600401610af4929190613482565b6020604051808303816000875af1158015610b13573d6000803e3d6000fd5b505050506040513d601f19601f82011682018060405250810190610b3791906134c0565b505050565b60068054610b49906130f8565b80601f0160208091040260200160405190810160405280929190818152602001828054610b75906130f8565b8015610bc25780601f10610b9757610100808354040283529160200191610bc2565b820191906000526020600020905b815481529060010190602001808311610ba557829003601f168201915b505050505081565b6000610bd582611798565b9050919050565b6000610be6611ab2565b6003546002541115610c2d576040517f08c379a0000000000000000000000000000000000000000000000000000000008152600401610c2490613539565b60405180910390fd5b6000600254905060026000815480929190610c4790613588565b9190505550610c568382611b39565b8273ffffffffffffffffffffffffffffffffffffffff167f2499a5330ab0979cc612135e7883ebc3cd5c9f7a8508f042540c34723348f63282604051610c9c9190612cf9565b60405180910390a280915050919050565b600080610cb8611770565b9050600073ffffffffffffffffffffffffffffffffffffffff168373ffffffffffffffffffffffffffffffffffffffff1603610d2c5760006040517f89c62b64000000000000000000000000000000000000000000000000000000008152600401610d239190612a18565b60405180910390fd5b8060030160008473ffffffffffffffffffffffffffffffffffffffff1673ffffffffffffffffffffffffffffffffffffffff16815260200190815260200160002054915050919050565b610d7e611ab2565b610d886000611b57565b565b60025481565b60078054610d9d906130f8565b80601f0160208091040260200160405190810160405280929190818152602001828054610dc9906130f8565b8015610e165780601f10610deb57610100808354040283529160200191610e16565b820191906000526020600020905b815481529060010190602001808311610df957829003601f168201915b505050505081565b600080610e29611c2e565b90508060000160009054906101000a900473ffffffffffffffffffffffffffffffffffffffff1691505090565b60606000610e62611770565b9050806001018054610e73906130f8565b80601f0160208091040260200160405190810160405280929190818152602001828054610e9f906130f8565b8015610eec5780601f10610ec157610100808354040283529160200191610eec565b820191906000526020600020905b815481529060010190602001808311610ecf57829003601f168201915b505050505091505090565b60015481565b6000610f07611c56565b905060008160000160089054906101000a900460ff1615905060008260000160009054906101000a900467ffffffffffffffff1690506000808267ffffffffffffffff16148015610f555750825b9050600060018367ffffffffffffffff16148015610f8a575060003073ffffffffffffffffffffffffffffffffffffffff163b145b905081158015610f98575080155b15610fcf576040517ff92ee8a900000000000000000000000000000000000000000000000000000000815260040160405180910390fd5b60018560000160006101000a81548167ffffffffffffffff021916908367ffffffffffffffff160217905550831561101f5760018560000160086101000a81548160ff0219169083151502179055505b6110936040518060400160405280600d81526020017f50726f70657274795368617265000000000000000000000000000000000000008152506040518060400160405280600381526020017f5053480000000000000000000000000000000000000000000000000000000000815250611c6a565b61109c8d611c80565b8f6000806101000a81548173ffffffffffffffffffffffffffffffffffffffff021916908373ffffffffffffffffffffffffffffffffffffffff1602179055508e6001819055508d600490816110f29190613302565b506001600281905550876003819055508b600590816111119190613302565b508a600690816111219190613302565b5089600790816111319190613302565b5088600890816111419190613302565b5086600990816111519190613302565b5085600a90816111619190613302565b503073ffffffffffffffffffffffffffffffffffffffff167f75b9807b645e0c579ece4fc6b6526b8bcc9db3087873cf294c8c800128c7414e8d8d8d8d8d8d8d6040516111b497969594939291906135d0565b60405180910390a283156112185760008560000160086101000a81548160ff0219169083151502179055507fc7f505b2f371ae2175ee4913f4499e1f2633a7b5936321eed1cdaeb6115181d2600160405161120f91906136b8565b60405180910390a15b50505050505050505050505050505050565b61123c61123561186b565b8383611c94565b5050565b600a805461124d906130f8565b80601f0160208091040260200160405190810160405280929190818152602001828054611279906130f8565b80156112c65780601f1061129b576101008083540402835291602001916112c6565b820191906000526020600020905b8154815290600101906020018083116112a957829003601f168201915b505050505081565b6112d9848484610872565b6112ed6112e461186b565b85858585611e12565b50505050565b606060003073ffffffffffffffffffffffffffffffffffffffff16636352211e846040518263ffffffff1660e01b81526004016113309190612cf9565b602060405180830381865afa92505050801561136a57506040513d601f19601f8201168201806040525081019061136791906136e8565b60015b6113a9576040517f08c379a00000000000000000000000000000000000000000000000000000000081526004016113a090613787565b60405180910390fd5b8091505060046113b884611fc3565b6040516020016113c99291906138b2565b604051602081830303815290604052915050919050565b600480546113ed906130f8565b80601f0160208091040260200160405190810160405280929190818152602001828054611419906130f8565b80156114665780601f1061143b57610100808354040283529160200191611466565b820191906000526020600020905b81548152906001019060200180831161144957829003601f168201915b505050505081565b6005805461147b906130f8565b80601f01602080910402602001604051908101604052809291908181526020018280546114a7906130f8565b80156114f45780601f106114c9576101008083540402835291602001916114f4565b820191906000526020600020905b8154815290600101906020018083116114d757829003601f168201915b505050505081565b600080611507611770565b90508060050160008573ffffffffffffffffffffffffffffffffffffffff1673ffffffffffffffffffffffffffffffffffffffff16815260200190815260200160002060008473ffffffffffffffffffffffffffffffffffffffff1673ffffffffffffffffffffffffffffffffffffffff16815260200190815260200160002060009054906101000a900460ff1691505092915050565b6115a6611ab2565b600073ffffffffffffffffffffffffffffffffffffffff168173ffffffffffffffffffffffffffffffffffffffff16036116185760006040517f1e4fbdf700000000000000000000000000000000000000000000000000000000815260040161160f9190612a18565b60405180910390fd5b61162181611b57565b50565b60098054611631906130f8565b80601f016020809104026020016040519081016040528092919081815260200182805461165d906130f8565b80156116aa5780601f1061167f576101008083540402835291602001916116aa565b820191906000526020600020905b81548152906001019060200180831161168d57829003601f168201915b505050505081565b6116ba611ab2565b80600a90816116c99190613302565b507f7c77f4e29677ad96205a29d7eb4549ceb8e005096a66b8e3ea6287025be93a9781426040516116fb9291906138e1565b60405180910390a150565b60007f01ffc9a7000000000000000000000000000000000000000000000000000000007bffffffffffffffffffffffffffffffffffffffffffffffffffffffff1916827bffffffffffffffffffffffffffffffffffffffffffffffffffffffff1916149050919050565b60007f80bb2b638cc20bc4d0a60d66940f3ab4a00c1d7b313497ca82fb0b4ab0079300905090565b6000806117a483612091565b9050600073ffffffffffffffffffffffffffffffffffffffff168173ffffffffffffffffffffffffffffffffffffffff160361181757826040517f7e27328900000000000000000000000000000000000000000000000000000000815260040161180e9190612cf9565b60405180910390fd5b80915050919050565b60008061182b611770565b905080600401600084815260200190815260200160002060009054906101000a900473ffffffffffffffffffffffffffffffffffffffff16915050919050565b600033905090565b61188083838360016120dc565b505050565b600080611890611770565b9050600061189d85612091565b9050600073ffffffffffffffffffffffffffffffffffffffff168473ffffffffffffffffffffffffffffffffffffffff16146118df576118de8185876122b0565b5b600073ffffffffffffffffffffffffffffffffffffffff168173ffffffffffffffffffffffffffffffffffffffff1614611972576119216000866000806120dc565b60018260030160008373ffffffffffffffffffffffffffffffffffffffff1673ffffffffffffffffffffffffffffffffffffffff168152602001908152602001600020600082825403925050819055505b600073ffffffffffffffffffffffffffffffffffffffff168673ffffffffffffffffffffffffffffffffffffffff16146119f75760018260030160008873ffffffffffffffffffffffffffffffffffffffff1673ffffffffffffffffffffffffffffffffffffffff168152602001908152602001600020600082825401925050819055505b8582600201600087815260200190815260200160002060006101000a81548173ffffffffffffffffffffffffffffffffffffffff021916908373ffffffffffffffffffffffffffffffffffffffff160217905550848673ffffffffffffffffffffffffffffffffffffffff168273ffffffffffffffffffffffffffffffffffffffff167fddf252ad1be2c89b69c2b068fc378daa952ba7f163c4a11628f55a4df523b3ef60405160405180910390a480925050509392505050565b611aba61186b565b73ffffffffffffffffffffffffffffffffffffffff16611ad8610e1e565b73ffffffffffffffffffffffffffffffffffffffff1614611b3757611afb61186b565b6040517f118cdaa7000000000000000000000000000000000000000000000000000000008152600401611b2e9190612a18565b60405180910390fd5b565b611b53828260405180602001604052806000815250612374565b5050565b6000611b61611c2e565b905060008160000160009054906101000a900473ffffffffffffffffffffffffffffffffffffffff169050828260000160006101000a81548173ffffffffffffffffffffffffffffffffffffffff021916908373ffffffffffffffffffffffffffffffffffffffff1602179055508273ffffffffffffffffffffffffffffffffffffffff168173ffffffffffffffffffffffffffffffffffffffff167f8be0079c531659141344cd1fd0a4f28419497f9722a3daafe3b4186f6b6457e060405160405180910390a3505050565b60007f9016d09d72d40fdae2fd8ceac6b6234c7706214fd39c1cd1e609a0528c199300905090565b600080611c61612398565b90508091505090565b611c726123c3565b611c7c8282612403565b5050565b611c886123c3565b611c9181612440565b50565b6000611c9e611770565b9050600073ffffffffffffffffffffffffffffffffffffffff168373ffffffffffffffffffffffffffffffffffffffff1603611d1157826040517f5b08ba18000000000000000000000000000000000000000000000000000000008152600401611d089190612a18565b60405180910390fd5b818160050160008673ffffffffffffffffffffffffffffffffffffffff1673ffffffffffffffffffffffffffffffffffffffff16815260200190815260200160002060008573ffffffffffffffffffffffffffffffffffffffff1673ffffffffffffffffffffffffffffffffffffffff16815260200190815260200160002060006101000a81548160ff0219169083151502179055508273ffffffffffffffffffffffffffffffffffffffff168473ffffffffffffffffffffffffffffffffffffffff167f17307eab39ab6107e8899845ad3d59bd9653f200f220920489ca2b5937696c3184604051611e0491906128a7565b60405180910390a350505050565b60008373ffffffffffffffffffffffffffffffffffffffff163b1115611fbc578273ffffffffffffffffffffffffffffffffffffffff1663150b7a02868685856040518563ffffffff1660e01b8152600401611e719493929190613966565b6020604051808303816000875af1925050508015611ead57506040513d601f19601f82011682018060405250810190611eaa91906139c7565b60015b611f31573d8060008114611edd576040519150601f19603f3d011682016040523d82523d6000602084013e611ee2565b606091505b506000815103611f2957836040517f64a0ae92000000000000000000000000000000000000000000000000000000008152600401611f209190612a18565b60405180910390fd5b805181602001fd5b63150b7a0260e01b7bffffffffffffffffffffffffffffffffffffffffffffffffffffffff1916817bffffffffffffffffffffffffffffffffffffffffffffffffffffffff191614611fba57836040517f64a0ae92000000000000000000000000000000000000000000000000000000008152600401611fb19190612a18565b60405180910390fd5b505b5050505050565b606060006001611fd2846124c6565b01905060008167ffffffffffffffff811115611ff157611ff0612b76565b5b6040519080825280601f01601f1916602001820160405280156120235781602001600182028036833780820191505090505b509050600082602001820190505b600115612086578080600190039150507f3031323334353637383961626364656600000000000000000000000000000000600a86061a8153600a858161207a576120796139f4565b5b04945060008503612031575b819350505050919050565b60008061209c611770565b905080600201600084815260200190815260200160002060009054906101000a900473ffffffffffffffffffffffffffffffffffffffff16915050919050565b60006120e6611770565b905081806121215750600073ffffffffffffffffffffffffffffffffffffffff168373ffffffffffffffffffffffffffffffffffffffff1614155b1561225557600061213185611798565b9050600073ffffffffffffffffffffffffffffffffffffffff168473ffffffffffffffffffffffffffffffffffffffff161415801561219c57508373ffffffffffffffffffffffffffffffffffffffff168173ffffffffffffffffffffffffffffffffffffffff1614155b80156121af57506121ad81856114fc565b155b156121f157836040517fa9fbf51f0000000000000000000000000000000000000000000000000000000081526004016121e89190612a18565b60405180910390fd5b821561225357848673ffffffffffffffffffffffffffffffffffffffff168273ffffffffffffffffffffffffffffffffffffffff167f8c5be1e5ebec7d5bd14f71427d1e84f3dd0314c0f7b2291e5b200ac8c7c3b92560405160405180910390a45b505b8481600401600086815260200190815260200160002060006101000a81548173ffffffffffffffffffffffffffffffffffffffff021916908373ffffffffffffffffffffffffffffffffffffffff1602179055505050505050565b6122bb838383612619565b61236f57600073ffffffffffffffffffffffffffffffffffffffff168373ffffffffffffffffffffffffffffffffffffffff160361233057806040517f7e2732890000000000000000000000000000000000000000000000000000000081526004016123279190612cf9565b60405180910390fd5b81816040517f177e802f000000000000000000000000000000000000000000000000000000008152600401612366929190613482565b60405180910390fd5b505050565b61237e83836126da565b61239361238961186b565b6000858585611e12565b505050565b60007ff0c57e16840df040f15088dc2f81fe391c3923bec73e23a9662efc9c229c6a0060001b905090565b6123cb6127d3565b612401576040517fd7e6bcf800000000000000000000000000000000000000000000000000000000815260040160405180910390fd5b565b61240b6123c3565b6000612415611770565b9050828160000190816124289190613302565b508181600101908161243a9190613302565b50505050565b6124486123c3565b600073ffffffffffffffffffffffffffffffffffffffff168173ffffffffffffffffffffffffffffffffffffffff16036124ba5760006040517f1e4fbdf70000000000000000000000000000000000000000000000000000000081526004016124b19190612a18565b60405180910390fd5b6124c381611b57565b50565b600080600090507a184f03e93ff9f4daa797ed6e38ed64bf6a1f0100000000000000008310612524577a184f03e93ff9f4daa797ed6e38ed64bf6a1f010000000000000000838161251a576125196139f4565b5b0492506040810190505b6d04ee2d6d415b85acef81000000008310612561576d04ee2d6d415b85acef81000000008381612557576125566139f4565b5b0492506020810190505b662386f26fc10000831061259057662386f26fc100008381612586576125856139f4565b5b0492506010810190505b6305f5e10083106125b9576305f5e10083816125af576125ae6139f4565b5b0492506008810190505b61271083106125de5761271083816125d4576125d36139f4565b5b0492506004810190505b6064831061260157606483816125f7576125f66139f4565b5b0492506002810190505b600a8310612610576001810190505b80915050919050565b60008073ffffffffffffffffffffffffffffffffffffffff168373ffffffffffffffffffffffffffffffffffffffff16141580156126d157508273ffffffffffffffffffffffffffffffffffffffff168473ffffffffffffffffffffffffffffffffffffffff161480612692575061269184846114fc565b5b806126d057508273ffffffffffffffffffffffffffffffffffffffff166126b883611820565b73ffffffffffffffffffffffffffffffffffffffff16145b5b90509392505050565b600073ffffffffffffffffffffffffffffffffffffffff168273ffffffffffffffffffffffffffffffffffffffff160361274c5760006040517f64a0ae920000000000000000000000000000000000000000000000000000000081526004016127439190612a18565b60405180910390fd5b600061275a83836000611885565b9050600073ffffffffffffffffffffffffffffffffffffffff168173ffffffffffffffffffffffffffffffffffffffff16146127ce5760006040517f73c6ac6e0000000000000000000000000000000000000000000000000000000081526004016127c59190612a18565b60405180910390fd5b505050565b60006127dd611c56565b60000160089054906101000a900460ff16905090565b6000604051905090565b600080fd5b600080fd5b60007fffffffff0000000000000000000000000000000000000000000000000000000082169050919050565b61283c81612807565b811461284757600080fd5b50565b60008135905061285981612833565b92915050565b600060208284031215612875576128746127fd565b5b60006128838482850161284a565b91505092915050565b60008115159050919050565b6128a18161288c565b82525050565b60006020820190506128bc6000830184612898565b92915050565b600081519050919050565b600082825260208201905092915050565b60005b838110156128fc5780820151818401526020810190506128e1565b60008484015250505050565b6000601f19601f8301169050919050565b6000612924826128c2565b61292e81856128cd565b935061293e8185602086016128de565b61294781612908565b840191505092915050565b6000602082019050818103600083015261296c8184612919565b905092915050565b6000819050919050565b61298781612974565b811461299257600080fd5b50565b6000813590506129a48161297e565b92915050565b6000602082840312156129c0576129bf6127fd565b5b60006129ce84828501612995565b91505092915050565b600073ffffffffffffffffffffffffffffffffffffffff82169050919050565b6000612a02826129d7565b9050919050565b612a12816129f7565b82525050565b6000602082019050612a2d6000830184612a09565b92915050565b612a3c816129f7565b8114612a4757600080fd5b50565b600081359050612a5981612a33565b92915050565b60008060408385031215612a7657612a756127fd565b5b6000612a8485828601612a4a565b9250506020612a9585828601612995565b9150509250929050565b6000819050919050565b6000612ac4612abf612aba846129d7565b612a9f565b6129d7565b9050919050565b6000612ad682612aa9565b9050919050565b6000612ae882612acb565b9050919050565b612af881612add565b82525050565b6000602082019050612b136000830184612aef565b92915050565b600080600060608486031215612b3257612b316127fd565b5b6000612b4086828701612a4a565b9350506020612b5186828701612a4a565b9250506040612b6286828701612995565b9150509250925092565b600080fd5b600080fd5b7f4e487b7100000000000000000000000000000000000000000000000000000000600052604160045260246000fd5b612bae82612908565b810181811067ffffffffffffffff82111715612bcd57612bcc612b76565b5b80604052505050565b6000612be06127f3565b9050612bec8282612ba5565b919050565b600067ffffffffffffffff821115612c0c57612c0b612b76565b5b612c1582612908565b9050602081019050919050565b82818337600083830152505050565b6000612c44612c3f84612bf1565b612bd6565b905082815260208101848484011115612c6057612c5f612b71565b5b612c6b848285612c22565b509392505050565b600082601f830112612c8857612c87612b6c565b5b8135612c98848260208601612c31565b91505092915050565b600060208284031215612cb757612cb66127fd565b5b600082013567ffffffffffffffff811115612cd557612cd4612802565b5b612ce184828501612c73565b91505092915050565b612cf381612974565b82525050565b6000602082019050612d0e6000830184612cea565b92915050565b600060208284031215612d2a57612d296127fd565b5b6000612d3884828501612a4a565b91505092915050565b60008060008060008060008060008060006101608c8e031215612d6757612d666127fd565b5b6000612d758e828f01612a4a565b9b50506020612d868e828f01612995565b9a505060408c013567ffffffffffffffff811115612da757612da6612802565b5b612db38e828f01612c73565b9950506060612dc48e828f01612a4a565b98505060808c013567ffffffffffffffff811115612de557612de4612802565b5b612df18e828f01612c73565b97505060a08c013567ffffffffffffffff811115612e1257612e11612802565b5b612e1e8e828f01612c73565b96505060c08c013567ffffffffffffffff811115612e3f57612e3e612802565b5b612e4b8e828f01612c73565b95505060e08c013567ffffffffffffffff811115612e6c57612e6b612802565b5b612e788e828f01612c73565b945050610100612e8a8e828f01612995565b9350506101208c013567ffffffffffffffff811115612eac57612eab612802565b5b612eb88e828f01612c73565b9250506101408c013567ffffffffffffffff811115612eda57612ed9612802565b5b612ee68e828f01612c73565b9150509295989b509295989b9093969950565b612f028161288c565b8114612f0d57600080fd5b50565b600081359050612f1f81612ef9565b92915050565b60008060408385031215612f3c57612f3b6127fd565b5b6000612f4a85828601612a4a565b9250506020612f5b85828601612f10565b9150509250929050565b600067ffffffffffffffff821115612f8057612f7f612b76565b5b612f8982612908565b9050602081019050919050565b6000612fa9612fa484612f65565b612bd6565b905082815260208101848484011115612fc557612fc4612b71565b5b612fd0848285612c22565b509392505050565b600082601f830112612fed57612fec612b6c565b5b8135612ffd848260208601612f96565b91505092915050565b600080600080608085870312156130205761301f6127fd565b5b600061302e87828801612a4a565b945050602061303f87828801612a4a565b935050604061305087828801612995565b925050606085013567ffffffffffffffff81111561307157613070612802565b5b61307d87828801612fd8565b91505092959194509250565b600080604083850312156130a05761309f6127fd565b5b60006130ae85828601612a4a565b92505060206130bf85828601612a4a565b9150509250929050565b7f4e487b7100000000000000000000000000000000000000000000000000000000600052602260045260246000fd5b6000600282049050600182168061311057607f821691505b602082108103613123576131226130c9565b5b50919050565b600060608201905061313e6000830186612a09565b61314b6020830185612cea565b6131586040830184612a09565b949350505050565b60008190508160005260206000209050919050565b60006020601f8301049050919050565b600082821b905092915050565b6000600883026131c27fffffffffffffffffffffffffffffffffffffffffffffffffffffffffffffffff82613185565b6131cc8683613185565b95508019841693508086168417925050509392505050565b60006131ff6131fa6131f584612974565b612a9f565b612974565b9050919050565b6000819050919050565b613219836131e4565b61322d61322582613206565b848454613192565b825550505050565b600090565b613242613235565b61324d818484613210565b505050565b5b818110156132715761326660008261323a565b600181019050613253565b5050565b601f8211156132b65761328781613160565b61329084613175565b8101602085101561329f578190505b6132b36132ab85613175565b830182613252565b50505b505050565b600082821c905092915050565b60006132d9600019846008026132bb565b1980831691505092915050565b60006132f283836132c8565b9150826002028217905092915050565b61330b826128c2565b67ffffffffffffffff81111561332457613323612b76565b5b61332e82546130f8565b613339828285613275565b600060209050601f83116001811461336c576000841561335a578287015190505b61336485826132e6565b8655506133cc565b601f19841661337a86613160565b60005b828110156133a25784890151825560018201915060208501945060208101905061337d565b868310156133bf57848901516133bb601f8916826132c8565b8355505b6001600288020188555050505b505050505050565b6000815190506133e38161297e565b92915050565b6000602082840312156133ff576133fe6127fd565b5b600061340d848285016133d4565b91505092915050565b7f496e73756666696369656e742055534443000000000000000000000000000000600082015250565b600061344c6011836128cd565b915061345782613416565b602082019050919050565b6000602082019050818103600083015261347b8161343f565b9050919050565b60006040820190506134976000830185612a09565b6134a46020830184612cea565b9392505050565b6000815190506134ba81612ef9565b92915050565b6000602082840312156134d6576134d56127fd565b5b60006134e4848285016134ab565b91505092915050565b7f416c6c20736861726573206d696e746564000000000000000000000000000000600082015250565b60006135236011836128cd565b915061352e826134ed565b602082019050919050565b6000602082019050818103600083015261355281613516565b9050919050565b7f4e487b7100000000000000000000000000000000000000000000000000000000600052601160045260246000fd5b600061359382612974565b91507fffffffffffffffffffffffffffffffffffffffffffffffffffffffffffffffff82036135c5576135c4613559565b5b600182019050919050565b600060e08201905081810360008301526135ea818a612919565b905081810360208301526135fe8189612919565b905081810360408301526136128188612919565b905081810360608301526136268187612919565b90506136356080830186612cea565b81810360a08301526136478185612919565b905081810360c083015261365b8184612919565b905098975050505050505050565b6000819050919050565b600067ffffffffffffffff82169050919050565b60006136a261369d61369884613669565b612a9f565b613673565b9050919050565b6136b281613687565b82525050565b60006020820190506136cd60008301846136a9565b92915050565b6000815190506136e281612a33565b92915050565b6000602082840312156136fe576136fd6127fd565b5b600061370c848285016136d3565b91505092915050565b7f4552433732314d657461646174613a2055524920717565727920666f72206e6f60008201527f6e6578697374656e7420746f6b656e0000000000000000000000000000000000602082015250565b6000613771602f836128cd565b915061377c82613715565b604082019050919050565b600060208201905081810360008301526137a081613764565b9050919050565b600081905092915050565b600081546137bf816130f8565b6137c981866137a7565b945060018216600081146137e457600181146137f95761382c565b60ff198316865281151582028601935061382c565b61380285613160565b60005b8381101561382457815481890152600182019150602081019050613805565b838801955050505b50505092915050565b6000613840826128c2565b61384a81856137a7565b935061385a8185602086016128de565b80840191505092915050565b7f2e6a736f6e000000000000000000000000000000000000000000000000000000600082015250565b600061389c6005836137a7565b91506138a782613866565b600582019050919050565b60006138be82856137b2565b91506138ca8284613835565b91506138d58261388f565b91508190509392505050565b600060408201905081810360008301526138fb8185612919565b905061390a6020830184612cea565b9392505050565b600081519050919050565b600082825260208201905092915050565b600061393882613911565b613942818561391c565b93506139528185602086016128de565b61395b81612908565b840191505092915050565b600060808201905061397b6000830187612a09565b6139886020830186612a09565b6139956040830185612cea565b81810360608301526139a7818461392d565b905095945050505050565b6000815190506139c181612833565b92915050565b6000602082840312156139dd576139dc6127fd565b5b60006139eb848285016139b2565b91505092915050565b7f4e487b7100000000000000000000000000000000000000000000000000000000600052601260045260246000fdfea264697066735822122059db0544c90cfe13f451fecd125875a5bf49acd98125310335afb4dfbfa4e33764736f6c634300081c0033",
  "linkReferences": {},
  "deployedLinkReferences": {}
}